:020000040000FA
:100000000C9462000C948A000C948A000C948A0070
:100010000C948A000C948A000C948A000C948A0038
:100020000C948A000C948A000C948A000C948A0028
:100030000C948A000C948A000C948A000C948A0018
:100040000C944C030C948A000C941A030C94F40244
:100050000C948A000C948A000C948A000C948A00F8
:100060000C948A000C948A000000000023002600F3
:10007000290000000008000201000003040700003E
:1000800000000000000000000000250028002B00F8
:1000900000000000240027002A00040404040404D3
:1000A0000404020202020202030303030303010227
:1000B00004081020408001020408102001020408F6
:1000C0001020010511241FBECFEFD8E0DEBFCDBF49
:1000D00012E0A0E0B1E0E0EBFAE002C005900D9282
:1000E000A031B107D9F722E0A0E1B2E001C01D9232
:1000F000AC3BB207E1F710E0C2E6D0E004C02197C4
:10010000FE010E945005C136D107C9F70E9496032F
:100110000C9456050C940000CF93DF9390E0FC0103
:10012000E255FF4F249186569F4FFC01849188230E
:10013000C1F090E0880F991FFC01E057FF4FC59177
:10014000D491FC01EA57FF4FA591B4919FB7F89461
:100150008881E22FE0958E2388838C91E823EC93AD
:100160009FBFDF91CF910895AF92BF92CF92DF9260
:10017000EF92FF920F931F93CF93DF936C017B015C
:100180008B01040F151FEB015E01AE18BF08C017ED
:10019000D10759F06991D601ED91FC910190F08160
:1001A000E02DC6010995892B79F7C501DF91CF9123
:1001B0001F910F91FF90EF90DF90CF90BF90AF9085
:1001C0000895FC01538D448D252F30E0842F90E05D
:1001D000821B930B541710F0CF9608950197089542
:1001E000FC01918D828D981761F0A28DAE0FBF2F0B
:1001F000B11D5D968C91928D9F5F9F73928F90E061
:1002000008958FEF9FEF0895FC01918D828D9817CF
:1002100031F0828DE80FF11D858D90E008958FEF0C
:100220009FEF0895FC01918D228D892F90E0805CD5
:100230009F4F821B91098F73992708958FE192E058
:100240000E94120121E0892B09F420E0822F0895F9
:1002500080E090E0892B29F00E941E0181110C940E
:1002600000000895FC01A48DA80FB92FB11DA35A59
:10027000BF4F2C91848D90E001968F739927848FC6
:10028000A689B7892C93A089B1898C9183708064E9
:100290008C93938D848D981306C00288F389E02D8A
:1002A00080818F7D80830895EF92FF920F931F933B
:1002B000CF93DF93EC0181E0888F9B8D8C8D981319
:1002C0001AC0E889F989808185FF15C09FB7F89425
:1002D000EE89FF896083E889F98980818370806471
:1002E00080839FBF81E090E0DF91CF911F910F91BC
:1002F000FF90EF900895F62E0B8D10E00F5F1F4FCB
:100300000F731127E02E8C8D8E110CC00FB607FCD9
:10031000FACFE889F989808185FFF5CFCE010E9467
:100320003201F1CFEB8DEC0FFD2FF11DE35AFF4FA2
:10033000F0829FB7F8940B8FEA89FB8980818062F5
:10034000CFCFCF93DF93EC01888D8823B9F0AA89B2
:10035000BB89E889F9898C9185FD03C0808186FD80
:100360000DC00FB607FCF7CF8C9185FFF2CF8081CF
:1003700085FFEDCFCE010E943201E9CFDF91CF9111
:10038000089590E0FC01EE58FF4F2491FC01E255E6
:10039000FF4F3491FC01E656FF4FE491EE23C1F18B
:1003A000222339F02330E9F090F4213001F122309A
:1003B00011F1F0E0EE0FFF1FE859FF4FA591B49146
:1003C000EC91E32381E090E029F580E00895273067
:1003D000A9F02830C9F0243061F7809180008F7D2A
:1003E00003C0809180008F7780938000E2CF84B536
:1003F0008F7784BDDECF84B58F7DFBCF8091B00039
:100400008F778093B000D5CF8091B0008F7DF9CFEA
:1004100080E090E008953FB7F894809115029091A4
:100420001602A0911702B091180226B5A89B05C02C
:100430002F3F19F00196A11DB11D3FBFBA2FA92F63
:10044000982F8827BC01CD01620F711D811D911D60
:1004500042E0660F771F881F991F4A95D1F70895CC
:100460008F929F92AF92BF92CF92DF92EF92FF92C4
:100470000E940B024B015C018EEEC82E82E0D82E4A
:10048000E12CF12C0E940B02681979098A099B0959
:10049000683E734081059105A8F321E0C21AD10896
:1004A000E108F10888EE880E83E0981EA11CB11CBB
:1004B000C114D104E104F10429F7FF90EF90DF901B
:1004C000CF90BF90AF909F908F900895FC010190C6
:1004D0000020E9F73197AF01481B590BBC018FE1B0
:1004E00092E00C94B40082E191E00C9466028F9249
:1004F0009F92AF92BF92CF92DF92EF92FF920F93B3
:100500001F93CF93DF93CDB7DEB7A1970FB6F894C3
:10051000DEBF0FBECDBF6C01990FEE08FF08F7FEDE
:1005200041C06DE28FE192E00E9454018C012227CC
:100530003327A9012C193D094E095F0919A2CE01E3
:1005400081967C019AE0892E912CA12CB12CCA01B4
:10055000B901A50194010E942E05605DF701629327
:100560007F01211531054105510589F790E080E0B3
:10057000309719F0CF010E946602800F911FA1965B
:100580000FB6F894DEBF0FBECDBFDF91CF911F91A4
:100590000F91FF90EF90DF90CF90BF90AF909F9022
:1005A0008F900895A701960119A28E010F5D1F4F2C
:1005B0008AE0C82ED12CE12CF12CCA01B901A70187
:1005C00096010E942E05605DF80162938F0121154E
:1005D00031054105510589F790E080E0309779F2C7
:1005E000CF010E946602CBCF1F920F920FB60F92DF
:1005F00011242F933F934F935F936F937F938F9328
:100600009F93AF93BF93EF93FF938FE192E00E948C
:100610003201FF91EF91BF91AF919F918F917F91A7
:100620006F915F914F913F912F910F900FBE0F905F
:100630001F9018951F920F920FB60F9211242F93AF
:100640008F939F93EF93FF93E0912F02F0913002ED
:100650008081E0913502F091360282FD1BC09081CD
:10066000809138028F5F8F7320913902821741F099
:10067000E0913802F0E0E15EFD4F958F8093380203
:10068000FF91EF919F918F912F910F900FBE0F903F
:100690001F9018958081F4CF1F920F920FB60F9282
:1006A00011242F933F938F939F93AF93BF93809188
:1006B000110290911202A0911302B0911402309194
:1006C000100223E0230F2D3758F50196A11DB11D0F
:1006D000209310028093110290931202A0931302B0
:1006E000B09314028091150290911602A091170206
:1006F000B09118020196A11DB11D8093150290932F
:100700001602A0931702B0931802BF91AF919F9168
:100710008F913F912F910F900FBE0F901F901895C2
:1007200026E8230F0296A11DB11DD2CF789484B57F
:10073000826084BD84B5816084BD85B5826085BDDD
:1007400085B5816085BD80916E00816080936E006B
:10075000109281008091810082608093810080915D
:10076000810081608093810080918000816080930E
:1007700080008091B10084608093B1008091B000CE
:1007800081608093B00080917A00846080937A00C9
:1007900080917A00826080937A0080917A008160F3
:1007A00080937A0080917A00806880937A0010921A
:1007B000C100E0912F02F091300282E08083E0914D
:1007C0002B02F0912C021082E0912D02F0912E026A
:1007D0008FEC808310923702E0913302F091340263
:1007E00086E08083E0913102F09132028081806165
:1007F0008083E0913102F0913202808188608083B1
:10080000E0913102F0913202808180688083E09132
:100810003102F091320280818F7D80838DE00E94D1
:100820008C008CE00E948C0088E00E948C0089E0A3
:100830000E948C00C0E0D0E08DE00E94C1016C01FC
:100840008CE00E94C1017C0188E00E94C1018C0102
:1008500089E00E94C101CA94CD2861F580911D02F2
:1008600090911E02019690931E0280931D0280912A
:100870001B0290911C02019690931C0280931B0214
:1008800085E191E00E94660280911D0290911E0216
:100890000E9477020E94730280E491E00E94660247
:1008A00080911B0290911C020E9477020E947302A9
:1008B0000E943002EA94EF2881F580911D02909108
:1008C0001E02181619060CF092C0019790931E0292
:1008D00080931D0280911B0290911C0201979093BE
:1008E0001C0280931B0284E691E00E9466028091C4
:1008F0001D0290911E020E9477020E94730280E402
:1009000091E00E94660280911B0290911C020E945D
:1009100077020E9473020E9430020130110509F033
:100920005BC08091190290911A02019690931A026D
:100930008093190280911B0290911C020196909362
:100940001C0280931B028DEB91E00E946602809155
:10095000190290911A020E9477020E94730280E4A9
:1009600091E00E94660280911B0290911C020E94FD
:1009700077020E9473020E943002809119029091C6
:100980001A0218161906C4F5019790931A0280935B
:10099000190280911B0290911C02019790931C02F6
:1009A00080931B0288EE91E00E94660280911902FA
:1009B00090911A020E9477020E94730280E491E0F3
:1009C0000E94660280911B0290911C020E94770295
:1009D0000E9473020E943002209709F42DCF0E94DA
:1009E0001E01882309F428CF0E94000025CF8CE83F
:1009F00091E00E9466028DCF8CE891E00E94660231
:100A0000E7CFEFE1F2E01382128288EE93E0A0E0FC
:100A1000B0E084839583A683B78384E091E09183DB
:100A2000808385EC90E09587848784EC90E09787BD
:100A3000868780EC90E0918B808B81EC90E0938BAB
:100A4000828B82EC90E0958B848B86EC90E0978B88
:100A5000868B118E128E138E148E0895A1E21A2E9B
:100A6000AA1BBB1BFD010DC0AA1FBB1FEE1FFF1F52
:100A7000A217B307E407F50720F0A21BB30BE40BA2
:100A8000F50B661F771F881F991F1A9469F76095E9
:100A90007095809590959B01AC01BD01CF010895A3
:100AA000EE0FFF1F0590F491E02D0994F894FFCF0D
:100AB000000000005401B400E100A1011201F000A7
:100AC00004010D0A00596F7520656E7465726564C6
:100AD0002C2074686520706572736F6E20696E7368
:100AE00069646520412053544F52452069733A0090
:100AF00054686520706572736F6E20696E736964E7
:100B0000652074686520616C6C2053544F524520F9
:100B100069733A00596F75206C6566742C2074688F
:100B20006520706572736F6E20696E7369646520ED
:100B3000412053544F52452069733A00596F752034
:100B400063616E2774206C6561766520746865202A
:100B5000706C61636520776865726520796F7520B8
:100B6000646F6E27742065786973742100596F75FE
:100B700020656E74657265642C20746865207065EC
:100B800072736F6E20696E736964652042205354DE
:100B90004F52452069733A00596F75206C65667431
:100BA0002C2074686520706572736F6E20696E7397
:100BB00069646520422053544F52452069733A00BE
:107E0000112484B714BE81FFF0D085E080938100F7
:107E100082E08093C00088E18093C10086E0809377
:107E2000C20080E18093C4008EE0C9D0259A86E02C
:107E300020E33CEF91E0309385002093840096BBD3
:107E4000B09BFECF1D9AA8958150A9F7CC24DD24C4
:107E500088248394B5E0AB2EA1E19A2EF3E0BF2EE7
:107E6000A2D0813461F49FD0082FAFD0023811F036
:107E7000013811F484E001C083E08DD089C08234E0
:107E800011F484E103C0853419F485E0A6D080C0E4
:107E9000853579F488D0E82EFF2485D0082F10E0AE
:107EA000102F00270E291F29000F111F8ED06801E7
:107EB0006FC0863521F484E090D080E0DECF843638
:107EC00009F040C070D06FD0082F6DD080E0C81688
:107ED00080E7D80618F4F601B7BEE895C0E0D1E017
:107EE00062D089930C17E1F7F0E0CF16F0E7DF06D8
:107EF00018F0F601B7BEE89568D007B600FCFDCFD4
:107F0000A601A0E0B1E02C9130E011968C91119780
:107F100090E0982F8827822B932B1296FA010C0160
:107F200087BEE89511244E5F5F4FF1E0A038BF0790
:107F300051F7F601A7BEE89507B600FCFDCF97BE46
:107F4000E89526C08437B1F42ED02DD0F82E2BD052
:107F50003CD0F601EF2C8F010F5F1F4F84911BD097
:107F6000EA94F801C1F70894C11CD11CFA94CF0C13
:107F7000D11C0EC0853739F428D08EE10CD085E9AC
:107F80000AD08FE07ACF813511F488E018D01DD067
:107F900080E101D065CF982F8091C00085FFFCCF94
:107FA0009093C60008958091C00087FFFCCF809118
:107FB000C00084FD01C0A8958091C6000895E0E648
:107FC000F0E098E1908380830895EDDF803219F02E
:107FD00088E0F5DFFFCF84E1DECF1F93182FE3DFCA
:107FE0001150E9F7F2DF1F91089580E0E8DFEE27F6
:047FF000FF270994CA
:027FFE00040479
:00000001FF
