:100000000C9462000C948A000C948A000C948A0070
:100010000C948A000C948A000C948A000C948A0038
:100020000C948A000C948A000C948A000C948A0028
:100030000C948A000C948A000C948A000C948A0018
:100040000C9430030C948A000C94FE020C94D80299
:100050000C948A000C948A000C948A000C948A00F8
:100060000C948A000C948A000000000023002600F3
:10007000290000000008000201000003040700003E
:1000800000000000000000000000250028002B00F8
:1000900000000000240027002A00040404040404D3
:1000A0000404020202020202030303030303010227
:1000B00004081020408001020408102001020408F6
:1000C0001020610411241FBECFEFD8E0DEBFCDBFEA
:1000D00011E0A0E0B1E0E0E7F9E002C005900D9288
:1000E000AA38B107D9F722E0AAE8B1E001C01D9211
:1000F000A233B207E1F710E0C2E6D0E004C02197D6
:10010000FE010E94B004C136D107C9F70E947A03EC
:100110000C94B6040C940000CF93DF9390E0FC01A4
:10012000E255FF4F249186569F4FFC01849188230E
:10013000C1F090E0880F991FFC01E057FF4FC59177
:10014000D491FC01EA57FF4FA591B4919FB7F89461
:100150008881E22FE0958E2388838C91E823EC93AD
:100160009FBFDF91CF910895AF92BF92CF92DF9260
:10017000EF92FF920F931F93CF93DF936C017B015C
:100180008B01040F151FEB015E01AE18BF08C017ED
:10019000D10759F06991D601ED91FC910190F08160
:1001A000E02DC6010995892B79F7C501DF91CF9123
:1001B0001F910F91FF90EF90DF90CF90BF90AF9085
:1001C0000895FC01538D448D252F30E0842F90E05D
:1001D000821B930B541710F0CF9608950197089542
:1001E000FC01918D828D981761F0A28DAE0FBF2F0B
:1001F000B11D5D968C91928D9F5F9F73928F90E061
:1002000008958FEF9FEF0895FC01918D828D9817CF
:1002100031F0828DE80FF11D858D90E008958FEF0C
:100220009FEF0895FC01918D228D892F90E0805CD5
:100230009F4F821B91098F739927089585E991E05B
:100240000E94120121E0892B09F420E0822F0895F9
:1002500080E090E0892B29F00E941E0181110C940E
:1002600000000895FC01A48DA80FB92FB11DA35A59
:10027000BF4F2C91848D90E001968F739927848FC6
:10028000A689B7892C93A089B1898C9183708064E9
:100290008C93938D848D981306C00288F389E02D8A
:1002A00080818F7D80830895EF92FF920F931F933B
:1002B000CF93DF93EC0181E0888F9B8D8C8D981319
:1002C0001AC0E889F989808185FF15C09FB7F89425
:1002D000EE89FF896083E889F98980818370806471
:1002E00080839FBF81E090E0DF91CF911F910F91BC
:1002F000FF90EF900895F62E0B8D10E00F5F1F4FCB
:100300000F731127E02E8C8D8E110CC00FB607FCD9
:10031000FACFE889F989808185FFF5CFCE010E9467
:100320003201F1CFEB8DEC0FFD2FF11DE35AFF4FA2
:10033000F0829FB7F8940B8FEA89FB8980818062F5
:10034000CFCFCF93DF93EC01888D8823B9F0AA89B2
:10035000BB89E889F9898C9185FD03C0808186FD80
:100360000DC00FB607FCF7CF8C9185FFF2CF8081CF
:1003700085FFEDCFCE010E943201E9CFDF91CF9111
:10038000089590E0FC01EE58FF4F2491FC01E255E6
:10039000FF4F3491FC01E656FF4FE491EE23C1F18B
:1003A000222339F02330E9F090F4213001F122309A
:1003B00011F1F0E0EE0FFF1FE859FF4FA591B49146
:1003C000EC91E32381E090E029F580E00895273067
:1003D000A9F02830C9F0243061F7809180008F7D2A
:1003E00003C0809180008F7780938000E2CF84B536
:1003F0008F7784BDDECF84B58F7DFBCF8091B00039
:100400008F778093B000D5CF8091B0008F7DF9CFEA
:1004100080E090E008953FB7F89480918F0190912B
:100420009001A0919101B091920126B5A89B05C0C1
:100430002F3F19F00196A11DB11D3FBFBA2FA92F63
:10044000982F8827BC01CD01620F711D811D911D60
:1004500042E0660F771F881F991F4A95D1F70895CC
:100460008F929F92AF92BF92CF92DF92EF92FF92C4
:100470000E940B024B015C018EEEC82E82E0D82E4A
:10048000E12CF12C0E940B02681979098A099B0959
:10049000683E734081059105A8F321E0C21AD10896
:1004A000E108F10888EE880E83E0981EA11CB11CBB
:1004B000C114D104E104F10429F7FF90EF90DF901B
:1004C000CF90BF90AF909F908F900895FC010190C6
:1004D0000020E9F73197AF01481B590BBC0185E9B2
:1004E00091E00C94B4008F929F92AF92BF920F93C1
:1004F0001F93CF93DF93CDB7DEB7A1970FB6F894D4
:10050000DEBF0FBECDBF19A2423008F44AE08E0113
:100510000F5D1F4F842E912CB12CA12CA5019401AD
:100520000E948E04E62FB901CA01EA30F4F4E05DBE
:10053000D801EE938D01232B242B252B79F790E006
:1005400080E0109719F0CD010E946602A1960FB6C7
:10055000F894DEBF0FBECDBFDF91CF911F910F91F9
:10056000BF90AF909F908F900895E95CE1CFCF92BC
:10057000DF92EF92FF92CF93DF936B017C016DE2EC
:1005800085E991E00E945401EC0166277727CB01B1
:100590006C197D098E099F094AE00E9473028C0F35
:1005A0009D1FDF91CF91FF90EF90DF90CF90089546
:1005B0001F920F920FB60F9211242F933F934F93D8
:1005C0005F936F937F938F939F93AF93BF93EF93BB
:1005D000FF9385E991E00E943201FF91EF91BF9175
:1005E000AF919F918F917F916F915F914F913F91CB
:1005F0002F910F900FBE0F901F9018951F920F9282
:100600000FB60F9211242F938F939F93EF93FF9325
:10061000E091A501F091A6018081E091AB01F091FC
:10062000AC0182FD1BC090818091AE018F5F8F7302
:100630002091AF01821741F0E091AE01F0E0EB565E
:10064000FE4F958F8093AE01FF91EF919F918F9117
:100650002F910F900FBE0F901F9018958081F4CFAF
:100660001F920F920FB60F9211242F933F938F93E7
:100670009F93AF93BF9380918B0190918C01A09138
:100680008D01B0918E0130918A0123E0230F2D3727
:1006900058F50196A11DB11D20938A0180938B010D
:1006A00090938C01A0938D01B0938E0180918F0166
:1006B00090919001A0919101B09192010196A11D9C
:1006C000B11D80938F0190939001A0939101B093FD
:1006D0009201BF91AF919F918F913F912F910F9078
:1006E0000FBE0F901F90189526E8230F0296A11DAC
:1006F000B11DD2CF789484B5826084BD84B5816009
:1007000084BD85B5826085BD85B5816085BD8091DC
:100710006E00816080936E00109281008091810054
:10072000826080938100809181008160809381004C
:10073000809180008160809380008091B10084600E
:100740008093B1008091B00081608093B00080916F
:100750007A00846080937A0080917A00826080932E
:100760007A0080917A00816080937A0080917A008B
:10077000806880937A001092C100E091A501F09109
:10078000A60182E08083E091A101F091A201108294
:10079000E091A301F091A4018FEC80831092AD0150
:1007A000E091A901F091AA0186E08083E091A70180
:1007B000F091A801808180618083E091A701F09190
:1007C000A801808188608083E091A701F091A80151
:1007D000808180688083E091A701F091A8018081E9
:1007E0008F7D80838DE00E948C008CE00E948C00C5
:1007F000C0E0D0E08DE00E94C1017C018CE00E944D
:10080000C1018C01EA94EF28F9F480919301909151
:1008100094010196909394018093930182E191E079
:100820000E9466026091930170919401072E000C62
:10083000880B990B97FF38C00E94B70285E391E0BF
:100840000E9466020E9430020130110511F580916C
:100850009301909194011816190674F501979093DD
:1008600094018093930188E391E00E946602609175
:10087000930170919401072E000C880B990B97FF40
:1008800017C00E94B70285E391E00E9466020E94B1
:100890003002209709F4AECF0E941E01882309F48C
:1008A000A9CF0E940000A6CF4AE00E947302C6CFE3
:1008B0004AE00E947302E7CF88E591E00E94660259
:1008C000E2CFE5E9F1E01382128288EE93E0A0E046
:1008D000B0E084839583A683B78384E091E091831D
:1008E000808385EC90E09587848784EC90E09787FF
:1008F000868780EC90E0918B808B81EC90E0938BED
:10090000828B82EC90E0958B848B86EC90E0978BC9
:10091000868B118E128E138E148E0895A1E21A2EDC
:10092000AA1BBB1BFD010DC0AA1FBB1FEE1FFF1F93
:10093000A217B307E407F50720F0A21BB30BE40BE3
:10094000F50B661F771F881F991F1A9469F760952A
:100950007095809590959B01AC01BD01CF010895E4
:10096000EE0FFF1F0590F491E02D0994F894FFCF4E
:10097000000000005401B400E100A1011201F000E8
:100980000401596F7520656E74657265642C20745E
:10099000686520706572736F6E20696E7369646537
:1009A0002069733A000D0A00596F75206C656674F2
:1009B0002C2074686520706572736F6E20696E7389
:1009C0006964652069733A00596F752063616E2709
:1009D00074206C656176652074686520706C616355
:1009E0006520776865726520796F7520646F6E2762
:0A09F000742065786973742100001B
:00000001FF
